{"contracts/testContract1.sol":{"testContract1":{"abi":[{"inputs":[],"stateMutability":"nonpayable","type":"constructor"},{"inputs":[{"internalType":"address payable","name":"to","type":"address"}],"name":"send","outputs":[],"stateMutability":"payable","type":"function"},{"inputs":[],"name":"var1","outputs":[{"internalType":"uint256","name":"","type":"uint256"}],"stateMutability":"view","type":"function"}],"evm":{"bytecode":{"linkReferences":{},"object":"608060405234801561001057600080fd5b5061271060005560fe806100256000396000f3fe60806040526004361060265760003560e01c80633e58c58c14602b57806367e919b614603c575b600080fd5b603a6036366004609a565b6062565b005b348015604757600080fd5b50605060005481565b60405190815260200160405180910390f35b6040516001600160a01b038216903480156108fc02916000818181858888f193505050501580156096573d6000803e3d6000fd5b5050565b60006020828403121560ab57600080fd5b81356001600160a01b038116811460c157600080fd5b939250505056fea264697066735822122047a0a8dfbd119af65d92498fe5229b5dedcd890236608d1bed0600e37e512bf364736f6c63430008110033","opcodes":"PUSH1 0x80 PUSH1 0x40 MSTORE CALLVALUE DUP1 ISZERO PUSH2 0x10 JUMPI PUSH1 0x0 DUP1 REVERT JUMPDEST POP PUSH2 0x2710 PUSH1 0x0 SSTORE PUSH1 0xFE DUP1 PUSH2 0x25 PUSH1 0x0 CODECOPY PUSH1 0x0 RETURN INVALID PUSH1 0x80 PUSH1 0x40 MSTORE PUSH1 0x4 CALLDATASIZE LT PUSH1 0x26 JUMPI PUSH1 0x0 CALLDATALOAD PUSH1 0xE0 SHR DUP1 PUSH4 0x3E58C58C EQ PUSH1 0x2B JUMPI DUP1 PUSH4 0x67E919B6 EQ PUSH1 0x3C JUMPI JUMPDEST PUSH1 0x0 DUP1 REVERT JUMPDEST PUSH1 0x3A PUSH1 0x36 CALLDATASIZE PUSH1 0x4 PUSH1 0x9A JUMP JUMPDEST PUSH1 0x62 JUMP JUMPDEST STOP JUMPDEST CALLVALUE DUP1 ISZERO PUSH1 0x47 JUMPI PUSH1 0x0 DUP1 REVERT JUMPDEST POP PUSH1 0x50 PUSH1 0x0 SLOAD DUP2 JUMP JUMPDEST PUSH1 0x40 MLOAD SWAP1 DUP2 MSTORE PUSH1 0x20 ADD PUSH1 0x40 MLOAD DUP1 SWAP2 SUB SWAP1 RETURN JUMPDEST PUSH1 0x40 MLOAD PUSH1 0x1 PUSH1 0x1 PUSH1 0xA0 SHL SUB DUP3 AND SWAP1 CALLVALUE DUP1 ISZERO PUSH2 0x8FC MUL SWAP2 PUSH1 0x0 DUP2 DUP2 DUP2 DUP6 DUP9 DUP9 CALL SWAP4 POP POP POP POP ISZERO DUP1 ISZERO PUSH1 0x96 JUMPI RETURNDATASIZE PUSH1 0x0 DUP1 RETURNDATACOPY RETURNDATASIZE PUSH1 0x0 REVERT JUMPDEST POP POP JUMP JUMPDEST PUSH1 0x0 PUSH1 0x20 DUP3 DUP5 SUB SLT ISZERO PUSH1 0xAB JUMPI PUSH1 0x0 DUP1 REVERT JUMPDEST DUP2 CALLDATALOAD PUSH1 0x1 PUSH1 0x1 PUSH1 0xA0 SHL SUB DUP2 AND DUP2 EQ PUSH1 0xC1 JUMPI PUSH1 0x0 DUP1 REVERT JUMPDEST SWAP4 SWAP3 POP POP POP JUMP INVALID LOG2 PUSH5 0x6970667358 0x22 SLT KECCAK256 SELFBALANCE LOG0 0xA8 0xDF 0xBD GT SWAP11 0xF6 0x5D SWAP3 0x49 DUP16 0xE5 0x22 SWAP12 0x5D 0xED 0xCD DUP10 MUL CALLDATASIZE PUSH1 0x8D SHL 0xED MOD STOP 0xE3 PUSH31 0x512BF364736F6C634300081100330000000000000000000000000000000000 "},"methodIdentifiers":{"send(address)":"3e58c58c","var1()":"67e919b6"}}}}}